{
  "_format": "hh-sol-artifact-1",
  "contractName": "WavePortal",
  "sourceName": "contracts/WavePortal.sol",
  "abi": [
    {
      "inputs": [],
      "stateMutability": "nonpayable",
      "type": "constructor"
    },
    {
      "inputs": [
        {
          "internalType": "uint256",
          "name": "",
          "type": "uint256"
        }
      ],
      "name": "entityList",
      "outputs": [
        {
          "internalType": "address",
          "name": "",
          "type": "address"
        }
      ],
      "stateMutability": "view",
      "type": "function"
    },
    {
      "inputs": [
        {
          "internalType": "address",
          "name": "",
          "type": "address"
        }
      ],
      "name": "entityStructs",
      "outputs": [
        {
          "internalType": "bool",
          "name": "isEntity",
          "type": "bool"
        }
      ],
      "stateMutability": "view",
      "type": "function"
    },
    {
      "inputs": [],
      "name": "getEntityCount",
      "outputs": [
        {
          "internalType": "uint256",
          "name": "entityCount",
          "type": "uint256"
        }
      ],
      "stateMutability": "view",
      "type": "function"
    },
    {
      "inputs": [],
      "name": "getTotalWaves",
      "outputs": [
        {
          "internalType": "uint256",
          "name": "",
          "type": "uint256"
        }
      ],
      "stateMutability": "view",
      "type": "function"
    },
    {
      "inputs": [
        {
          "internalType": "address",
          "name": "entityAddress",
          "type": "address"
        }
      ],
      "name": "isEntity",
      "outputs": [
        {
          "internalType": "bool",
          "name": "isIndeed",
          "type": "bool"
        }
      ],
      "stateMutability": "view",
      "type": "function"
    },
    {
      "inputs": [
        {
          "internalType": "address",
          "name": "entityAddress",
          "type": "address"
        },
        {
          "internalType": "string",
          "name": "wave",
          "type": "string"
        }
      ],
      "name": "newEntity",
      "outputs": [
        {
          "internalType": "uint256",
          "name": "rowNumber",
          "type": "uint256"
        }
      ],
      "stateMutability": "nonpayable",
      "type": "function"
    },
    {
      "inputs": [
        {
          "internalType": "address",
          "name": "_userAddress",
          "type": "address"
        },
        {
          "internalType": "string",
          "name": "_wave",
          "type": "string"
        }
      ],
      "name": "teste",
      "outputs": [],
      "stateMutability": "nonpayable",
      "type": "function"
    },
    {
      "inputs": [
        {
          "internalType": "address",
          "name": "entityAddress",
          "type": "address"
        },
        {
          "internalType": "string",
          "name": "wave",
          "type": "string"
        }
      ],
      "name": "updateEntity",
      "outputs": [
        {
          "internalType": "bool",
          "name": "success",
          "type": "bool"
        },
        {
          "internalType": "uint256",
          "name": "lenght",
          "type": "uint256"
        }
      ],
      "stateMutability": "nonpayable",
      "type": "function"
    },
    {
      "inputs": [],
      "name": "wave",
      "outputs": [],
      "stateMutability": "nonpayable",
      "type": "function"
    }
  ],
  "bytecode": "0x60806040523480156200001157600080fd5b506200005d6040518060400160405280601781526020017f48656c6c6f20426c6f636b636861696e20576f726c64210000000000000000008152506200006360201b620006451760201c565b620001f7565b62000103816040516024016200007a919062000170565b6040516020818303038152906040527f41304fac000000000000000000000000000000000000000000000000000000007bffffffffffffffffffffffffffffffffffffffffffffffffffffffff19166020820180517bffffffffffffffffffffffffffffffffffffffffffffffffffffffff83818316178352505050506200010660201b60201c565b50565b60008151905060006a636f6e736f6c652e6c6f679050602083016000808483855afa5050505050565b60006200013c8262000194565b6200014881856200019f565b93506200015a818560208601620001b0565b6200016581620001e6565b840191505092915050565b600060208201905081810360008301526200018c81846200012f565b905092915050565b600081519050919050565b600082825260208201905092915050565b60005b83811015620001d0578082015181840152602081019050620001b3565b83811115620001e0576000848401525b50505050565b6000601f19601f8301169050919050565b610fc280620002076000396000f3fe608060405234801561001057600080fd5b50600436106100935760003560e01c80635d1b45b5116100665780635d1b45b5146101445780636fe15b441461016257806396c48c2d1461016c5780639a2cdc081461019c578063aeeccf9b146101ba57610093565b806314887c58146100985780632cca6f15146100c8578063404cbffb146100e45780634dd448bf14610114575b600080fd5b6100b260048036038101906100ad9190610b24565b6101eb565b6040516100bf9190610c72565b60405180910390f35b6100e260048036038101906100dd9190610b4d565b610243565b005b6100fe60048036038101906100f99190610ba5565b610293565b60405161010b9190610c57565b60405180910390f35b61012e60048036038101906101299190610b24565b6102d2565b60405161013b9190610c72565b60405180910390f35b61014c6102fd565b6040516101599190610d58565b60405180910390f35b61016a61030a565b005b61018660048036038101906101819190610b4d565b610365565b6040516101939190610d58565b60405180910390f35b6101a4610515565b6040516101b19190610d58565b60405180910390f35b6101d460048036038101906101cf9190610b4d565b610560565b6040516101e2929190610c8d565b60405180910390f35b60008060008373ffffffffffffffffffffffffffffffffffffffff1673ffffffffffffffffffffffffffffffffffffffff16815260200190815260200160002060000160009054906101000a900460ff169050919050565b61024c836101eb565b156102745760008061025f858585610560565b9150915061026d82826106de565b505061028e565b6000610281848484610365565b905061028c8161077a565b505b505050565b600181815481106102a357600080fd5b906000526020600020016000915054906101000a900473ffffffffffffffffffffffffffffffffffffffff1681565b60006020528060005260406000206000915090508060000160009054906101000a900460ff16905081565b6000600180549050905090565b60016002600082825461031d9190610d8f565b925050819055506103636040518060400160405280600d81526020017f257320686173207761766564210000000000000000000000000000000000000081525033610813565b565b6000610378610373856101eb565b6108af565b610381846101eb565b156103c1576040517f08c379a00000000000000000000000000000000000000000000000000000000081526004016103b890610d38565b60405180910390fd5b6000808573ffffffffffffffffffffffffffffffffffffffff1673ffffffffffffffffffffffffffffffffffffffff16815260200190815260200160002060010183839091806001815401808255809150506001900390600052602060002001600090919290919290919290919250919061043d929190610a0d565b5060016000808673ffffffffffffffffffffffffffffffffffffffff1673ffffffffffffffffffffffffffffffffffffffff16815260200190815260200160002060000160006101000a81548160ff0219169083151502179055506001849080600181540180825580915050600190039060005260206000200160009091909190916101000a81548173ffffffffffffffffffffffffffffffffffffffff021916908373ffffffffffffffffffffffffffffffffffffffff1602179055506001808054905061050c9190610de5565b90509392505050565b60006105586040518060400160405280601781526020017f5765206861766520256420746f74616c20776176657321000000000000000000815250600254610948565b600254905090565b60008061056c856101eb565b61057557600080fd5b6000808673ffffffffffffffffffffffffffffffffffffffff1673ffffffffffffffffffffffffffffffffffffffff1681526020019081526020016000206001018484909180600181540180825580915050600190039060005260206000200160009091929091929091929091925091906105f1929190610a0d565b5060016000808773ffffffffffffffffffffffffffffffffffffffff1673ffffffffffffffffffffffffffffffffffffffff1681526020019081526020016000206001018054905091509150935093915050565b6106db816040516024016106599190610cb6565b6040516020818303038152906040527f41304fac000000000000000000000000000000000000000000000000000000007bffffffffffffffffffffffffffffffffffffffffffffffffffffffff19166020820180517bffffffffffffffffffffffffffffffffffffffffffffffffffffffff83818316178352505050506109e4565b50565b61077682826040516024016106f4929190610c8d565b6040516020818303038152906040527f364b6a92000000000000000000000000000000000000000000000000000000007bffffffffffffffffffffffffffffffffffffffffffffffffffffffff19166020820180517bffffffffffffffffffffffffffffffffffffffffffffffffffffffff83818316178352505050506109e4565b5050565b6108108160405160240161078e9190610d58565b6040516020818303038152906040527ff5b1bba9000000000000000000000000000000000000000000000000000000007bffffffffffffffffffffffffffffffffffffffffffffffffffffffff19166020820180517bffffffffffffffffffffffffffffffffffffffffffffffffffffffff83818316178352505050506109e4565b50565b6108ab8282604051602401610829929190610cd8565b6040516020818303038152906040527f319af333000000000000000000000000000000000000000000000000000000007bffffffffffffffffffffffffffffffffffffffffffffffffffffffff19166020820180517bffffffffffffffffffffffffffffffffffffffffffffffffffffffff83818316178352505050506109e4565b5050565b610945816040516024016108c39190610c72565b6040516020818303038152906040527f32458eed000000000000000000000000000000000000000000000000000000007bffffffffffffffffffffffffffffffffffffffffffffffffffffffff19166020820180517bffffffffffffffffffffffffffffffffffffffffffffffffffffffff83818316178352505050506109e4565b50565b6109e0828260405160240161095e929190610d08565b6040516020818303038152906040527f9710a9d0000000000000000000000000000000000000000000000000000000007bffffffffffffffffffffffffffffffffffffffffffffffffffffffff19166020820180517bffffffffffffffffffffffffffffffffffffffffffffffffffffffff83818316178352505050506109e4565b5050565b60008151905060006a636f6e736f6c652e6c6f679050602083016000808483855afa5050505050565b828054610a1990610e94565b90600052602060002090601f016020900481019282610a3b5760008555610a82565b82601f10610a5457803560ff1916838001178555610a82565b82800160010185558215610a82579182015b82811115610a81578235825591602001919060010190610a66565b5b509050610a8f9190610a93565b5090565b5b80821115610aac576000816000905550600101610a94565b5090565b600081359050610abf81610f5e565b92915050565b60008083601f840112610ad757600080fd5b8235905067ffffffffffffffff811115610af057600080fd5b602083019150836001820283011115610b0857600080fd5b9250929050565b600081359050610b1e81610f75565b92915050565b600060208284031215610b3657600080fd5b6000610b4484828501610ab0565b91505092915050565b600080600060408486031215610b6257600080fd5b6000610b7086828701610ab0565b935050602084013567ffffffffffffffff811115610b8d57600080fd5b610b9986828701610ac5565b92509250509250925092565b600060208284031215610bb757600080fd5b6000610bc584828501610b0f565b91505092915050565b610bd781610e19565b82525050565b610be681610e2b565b82525050565b6000610bf782610d73565b610c018185610d7e565b9350610c11818560208601610e61565b610c1a81610f24565b840191505092915050565b6000610c32601483610d7e565b9150610c3d82610f35565b602082019050919050565b610c5181610e57565b82525050565b6000602082019050610c6c6000830184610bce565b92915050565b6000602082019050610c876000830184610bdd565b92915050565b6000604082019050610ca26000830185610bdd565b610caf6020830184610c48565b9392505050565b60006020820190508181036000830152610cd08184610bec565b905092915050565b60006040820190508181036000830152610cf28185610bec565b9050610d016020830184610bce565b9392505050565b60006040820190508181036000830152610d228185610bec565b9050610d316020830184610c48565b9392505050565b60006020820190508181036000830152610d5181610c25565b9050919050565b6000602082019050610d6d6000830184610c48565b92915050565b600081519050919050565b600082825260208201905092915050565b6000610d9a82610e57565b9150610da583610e57565b9250827fffffffffffffffffffffffffffffffffffffffffffffffffffffffffffffffff03821115610dda57610dd9610ec6565b5b828201905092915050565b6000610df082610e57565b9150610dfb83610e57565b925082821015610e0e57610e0d610ec6565b5b828203905092915050565b6000610e2482610e37565b9050919050565b60008115159050919050565b600073ffffffffffffffffffffffffffffffffffffffff82169050919050565b6000819050919050565b60005b83811015610e7f578082015181840152602081019050610e64565b83811115610e8e576000848401525b50505050565b60006002820490506001821680610eac57607f821691505b60208210811415610ec057610ebf610ef5565b5b50919050565b7f4e487b7100000000000000000000000000000000000000000000000000000000600052601160045260246000fd5b7f4e487b7100000000000000000000000000000000000000000000000000000000600052602260045260246000fd5b6000601f19601f8301169050919050565b7f6572726f20646520616c67756d6120636f697361000000000000000000000000600082015250565b610f6781610e19565b8114610f7257600080fd5b50565b610f7e81610e57565b8114610f8957600080fd5b5056fea26469706673582212203c0ba4019ac9c26f09fad1fd9eba4373437762479baae2cccfed13fc675072ff64736f6c63430008040033",
  "linkReferences": {},
  "deployedLinkReferences": {}
}